:020000040800F2
:100000000000022089010008D1010008D101000888
:10001000D1010008D1010008D10100080000000052
:10002000000000000000000000000000D1010008F6
:10003000D101000800000000D1010008D101000832
:10004000D1010008D1010008D1010008D101000848
:10005000D1010008D1010008D1010008D101000838
:10006000D1010008D1010008D1010008D101000828
:10007000D1010008D1010008D1010008D101000818
:10008000D1010008D1010008D1010008D101000808
:10009000D1010008D1010008D1010008D1010008F8
:1000A000D1010008D1010008D1010008D1010008E8
:1000B000D1010008D1010008D1010008D1010008D8
:1000C000D1010008D1010008D1010008D1010008C8
:1000D000D1010008D1010008D1010008D1010008B8
:1000E000D1010008D1010008D1010008D1010008A8
:1000F000D1010008D1010008D1010008D101000898
:10010000D1010008D1010008D1010008D101000887
:10011000D1010008D1010008D1010008D101000877
:10012000D1010008D1010008D1010008D101000867
:10013000D1010008D1010008D1010008D101000857
:10014000D1010008D1010008D1010008D101000847
:10015000D1010008D1010008D1010008D101000837
:10016000D1010008D1010008D1010008D101000827
:10017000D1010008D1010008D1010008D101000817
:08018000D1010008D1010008C3
:10018800002100F004B80B4B5B58435004310A4877
:100198000A4B42189A42FFF4F6AF094A00F003B836
:1001A800002342F8043B074B9A42FFF4F9AF00F0F2
:1001B8000DF870475C0700080000002000000020D0
:1001C8000000002000000020FFF7FEBF08B51D203A
:1001D800012100F0A9F95D4B186820F040721A60FF
:1001E800196841F0807018605A6822F4805159608B
:1001F800D86820F04072DA60D96841F00070D860A1
:100208009A6822F040719960986840F080729A600C
:100218004F4B196821F003001860DA6822F00301D7
:10022800D9604C4B186820F440721A60196841F480
:10023800807018605A6822F010015960D86820F45C
:100248004072DA60D96841F40070D8609A6822F484
:1002580040719960986840F480729A603E4A1168CB
:1002680021F040601060116841F0806010605168B2
:1002780021F400505060D16821F04060D060D1680E
:1002880041F00060D060916821F040609060916812
:1002980041F0806090601A6822F440511960186833
:1002A80040F480521A60596821F040005860DA68BA
:1002B80022F44051D960D86840F40052DA60996855
:1002C80021F4405098609A6842F480519960186807
:1002D80020F440621A60196841F4806018605A6816
:1002E80022F020015960D86820F44062DA60D968A9
:1002F80041F40060D8609A6822F440619960986877
:1003080040F480629A6000F0F9F80021072000F0BC
:10031800B5F8124800F0E0F80020014600F0AEF809
:100328000F4800F0D9F80420012100F0A7F80D4883
:1003380000F0D2F80648054B02694FF4805112F0DC
:10034800010F14BF19835983F4E700BF000C024062
:100358000000024000100240000802404805000862
:10036800590500086A050008144B1A6C42F480719C
:100378001964134B002201285A6205D941F63F71CE
:1003880001381985D86204E040F69F70012218856B
:10039800DA6201229A82B3F810C02CF00101080435
:1003A800020C89211A8219800548038ADB07FBD5CC
:1003B800024B1A6C42F4807119647047003802408D
:1003C8000020004009220CE0084B402159832021DD
:1003D80010F0800F14BF19835983402140001983FE
:1003E800C0B2013AD2B2002AEED1704700100240E2
:1003F80038B5064C40231025202265836383628329
:100408002383FFF7DFFF258338BD00BF00100240BC
:1004180038B5064C40231025202265836383228348
:100428002383FFF7CFFF258338BD00BF00100240AC
:1004380010B54020FFF7DCFF1020FFF7D9FF0020A0
:10044800FFF7D6FFB020FFF7D3FFAE20FFF7D0FFAE
:10045800D8240020FFF7DCFF0020FFF7D9FF013C7C
:100468000020FFF7D5FFE4B20020FFF7D1FF002CF2
:10047800EFD1AF20BDE81040FFF7BABF10B5062492
:100488004C4300F00F0242F0B000E4B2FFF7B0FFB7
:10049800210901F0070040F01000FFF7A9FF04F060
:1004A8000E00BDE81040FFF7A3BF000038B50546B1
:1004B8000024084A05EB850150180319013413F884
:1004C800A00CFFF7A5FF052CF3D10020BDE83840AC
:1004D800FFF79EBF7905000810B50446AE20FFF768
:1004E80087FF01E0FFF7E2FF14F8010B0028F9D1BC
:1004F800AF20BDE81040FFF77BBF000038B5094CBE
:100508004FF4005505206583FFF72EFFA4202583AF
:10051800FFF76EFF2F20FFF76BFFBDE83840FFF7AE
:1005280087BF00BF00080240044B1A6B09B1104393
:1005380001E022EA00001863704700BF003802405B
:100548005A69426C6F672E72752040203230313400
:100558000053544D33324634446973636F76657281
:1005680079004C4344204E6F6B6961203131303043
:1005780000000000000000005F0000000700070006
:10058800147F147F14242A7F2A12231308646236E6
:10059800495522500005030000001C22410000417B
:1005A800221C00082A1C2A0808083E0808005030A7
:1005B800000008080808080030300000201008046F
:1005C800023E5149453E00427F4000426151494642
:1005D8002141454B311814127F1027454545393CB8
:1005E8004A494930017109050336494949360649DE
:1005F80049291E003636000000563600000008144F
:10060800224114141414144122140800020151093F
:1006180006324979413E7E1111117E7F494949369A
:100628003E414141227F4141221C7F494949417F46
:10063800090901013E414151327F0808087F004104
:100648007F41002040413F017F081422417F404004
:1006580040407F0204027F7F0408107F3E414141F1
:100668003E7F090909063E4151215E7F0919294645
:10067800464949493101017F01013F4040403F1F40
:100688002040201F7F2018207F6314081463030470
:10069800780403615149454300007F414102040841
:1006A800102041417F000004020102044040404004
:1006B80040000102040020545454787F48444438D0
:1006C8003844444420384444487F38545454180823
:1006D8007E090102081454543C7F0804047800443D
:1006E8007D40002040443D00007F10284400417FA9
:1006F80040007C041804787C080404783844444496
:10070800387C14141408081414187C7C0804040891
:100718004854545420043F4440203C4040207C1C12
:100728002040201C3C4030403C44281028440C50B9
:1007380050503C4464544C44000836410000007F4B
:100748000000004136080008082A1C08081C2A086E
:040758000800000095
:040000050800018866
:00000001FF
