:020000040800F2
:100000000000022089010008D1010008D101000888
:10001000D1010008D1010008D10100080000000052
:10002000000000000000000000000000D1010008F6
:10003000D101000800000000D1010008D101000832
:10004000D1010008D1010008D1010008D101000848
:10005000D1010008D1010008D1010008D101000838
:10006000D1010008D1010008D1010008D101000828
:10007000D1010008D1010008D1010008D101000818
:10008000D1010008D1010008D1010008D101000808
:10009000D1010008D1010008D1010008D1010008F8
:1000A000D1010008D1010008D1010008D1010008E8
:1000B000D1010008D1010008D1010008D1010008D8
:1000C000D1010008D1010008D1010008D1010008C8
:1000D000D1010008D1010008D1010008D1010008B8
:1000E000D1010008D1010008D1010008D1010008A8
:1000F000D1010008D1010008D1010008D101000898
:10010000D1010008D1010008D1010008D101000887
:10011000D1010008D1010008D1010008D101000877
:10012000D1010008D1010008D1010008D101000867
:10013000D1010008D1010008D1010008D101000857
:10014000D1010008D1010008D1010008D101000847
:10015000D1010008D1010008D1010008D101000837
:10016000D1010008D1010008D1010008D101000827
:10017000D1010008D1010008D1010008D101000817
:08018000D1010008D1010008C3
:10018800002100F004B80B4B5B58435004310A4877
:100198000A4B42189A42FFF4F6AF094A00F003B836
:1001A800002342F8043B074B9A42FFF4F9AF00F0F2
:1001B8000DF87047640200080000002000000020CD
:1001C8000000002000000020FFF7FEBF08B509204E
:1001D800012100F037F8194B196821F040701860B8
:1001E8001A6842F080711960586820F480525A6089
:1001F800D96821F04070D860DA6842F00071D9609F
:10020800986820F040729A60996841F08070986010
:100218000B4B1A6822F003011960D86820F003021A
:10022800DA600748054B02694FF4805C12F0010F51
:1002380014BFA3F818C0A3F81AC0F2E7000C0240D4
:1002480000000240044B1A6B09B1104301E022EA96
:0C02580000001863704700BF003802402F
:040000050800018866
:00000001FF
