:020000040800F2
:100000000000022089010008D1010008D101000888
:10001000D1010008D1010008D10100080000000052
:10002000000000000000000000000000D1010008F6
:10003000D101000800000000D1010008D101000832
:10004000D1010008D1010008D1010008D101000848
:10005000D1010008D1010008D1010008D101000838
:10006000D1010008D1010008D1010008D101000828
:10007000D1010008D1010008D1010008D101000818
:10008000D1010008D1010008D1010008D101000808
:10009000D1010008D1010008D1010008D1010008F8
:1000A000D1010008D1010008D1010008D1010008E8
:1000B000D1010008D1010008D1010008D1010008D8
:1000C000D1010008D1010008D1010008D1010008C8
:1000D000D1010008D1010008D1010008D1010008B8
:1000E000D1010008D1010008D1010008D1010008A8
:1000F000D1010008D1010008D1010008D101000898
:10010000D1010008D1010008D1010008D101000887
:10011000D1010008D1010008D1010008D101000877
:10012000D1010008D1010008D1010008D101000867
:10013000D1010008D1010008D1010008D101000857
:10014000D1010008D1010008D1010008D101000847
:10015000D1010008D1010008D1010008D101000837
:10016000D1010008D1010008D1010008D101000827
:10017000D1010008D1010008D1010008D101000817
:08018000D1010008D1010008C3
:10018800002100F004B80B4B5B58435004310A4877
:100198000A4B42189A42FFF4F6AF094A00F003B836
:1001A800002342F8043B074B9A42FFF4F9AF00F0F2
:1001B8000DF87047D4090008000000201000002046
:1001C800100000203C000020FFF7FEBF08B50B2000
:1001D800012100F069FB564B196821F04070186046
:1001E8001A6842F080711960586820F480525A6089
:1001F800D96821F04070D860DA6842F00071D9609F
:10020800986820F040729A60996841F08070986010
:10021800484B1A6822F003011960D86820F00302DD
:10022800DA60454B196821F4403018601A6842F4C6
:1002380000311960586840F480725A60D96821F416
:100248004030D860DA6842F48031D960986820F488
:1002580040329A60996841F4803098605A6A22F076
:100268000F015962586A40F004025A62196821F471
:10027800404018601A6842F400411960586840F01C
:1002880080025A60D96821F44040D860DA6842F4A4
:100298008041D960986820F440429A60996841F496
:1002A800804098601A6A22F070411962186A40F01A
:1002B80080421A62196821F040401860DA6822F01A
:1002C8004041D960186820F040521A60196841F01E
:1002D800805018605A6822F480415960D86820F02C
:1002E8004052DA60D96841F00050D8609A6822F02C
:1002F80040519960986840F080529A6000F064F923
:1003080000F04EF800F02CF90C4B186000F06AF879
:100318000B49074B0860074802694FF4805C12F0EC
:10032800010F14BFA3F818C0A3F81AC0EAE700BF6A
:10033800000C0240000002400004024010000020AF
:1003480014000020144B1A6C42F480711964134B8A
:10035800002201285A6205D941F63F7101381985F2
:10036800D86204E040F69F7001221885DA62012203
:100378009A82B3F810C02CF001010804020C8921FC
:100388001A8219800548038ADB07FBD5024B1A6CD1
:1003980042F4807119647047003802400020004020
:1003A80008B50E4B4FF480421A830520FFF7CAFFA9
:1003B8007720AA2100F030F909497720162200F0A9
:1003C800AFF9074B03F116011A88100A40EA022018
:1003D80023F8020B8B42F7D108BD00BF000402408E
:1003E8001800002030B589B07720F421342200F0BD
:1003F80039F9584803691B04FBD5F621772000F02A
:100408000BF9772000F05EF9534C0504772025623C
:1004180000F058F945EA00257720256200F052F9E6
:10042800A169A1F57A620392039B054303984343AC
:1004380000930099B4F90E000A130092009B4343FD
:1004480000930099B4F90200CA120092039B434337
:1004580001930199CA1201920098019BC118029157
:10046800029A2088042310FB032104910498049025
:10047800049A931C04930499B4F904302D120029AA
:10048800B8BF033188100490039A25625343009340
:10049800009948130090039B039A534301930199D1
:1004A800B4F90C2008130190019B5343019301995F
:1004B80008140190009A019BD11802910298821C9D
:1004C8000292029BE28899100291029800F500437B
:1004D800534305930599C80B0590049B4CF2503281
:1004E800ED1A554306950699002905DB069A0598E5
:1004F8005300B3FBF0F303E0069B059959434B08FF
:100508000793079B18120090009A009B40F6DE3173
:100518004B43534300930098104A01140091079BE2
:10052800534301930198011401910799009A019B83
:1005380002EB030E0EF56C6C1CF10F0048BF0CF1BA
:100548001E0001EB201212EB420048BF033080105E
:1005580009B030BD000402401800002043E3FFFF4B
:1005680038B57720F4212E2200F07CF8144803696E
:100578001A04FBD5F621772000F04EF8772000F01A
:10058800A1F80402A5B20F4C7720A58300F09AF8D1
:100598006189B4F9123045EA000215B22089A283B4
:1005A8006D1AB4F914206843C013D902831891FB5B
:1005B800F3FC00EB0C02A2610832110908B238BD45
:1005C80000040240180000201FB501214FF400105C
:1005D80000F076F90021ADF80410ADF808100C4BC6
:1005E80004A94FF48040ADF806004FF48062ADF8DE
:1005F8000C0041F8103D0748ADF80A20694600F0A4
:100608006BF90448012100F0D5F905B000BD00BF21
:10061800A086010000540040114B1A881FFA82FC82
:100628004CF480721A800E4BB3F814C05FEACC7297
:10063800F9D59A8A4200D0B21882094B988A800765
:10064800FBD59A8A1A8B1982054B998A4A07FBD5DA
:100658009A8A188882B242F4007CA3F800C07047D6
:100668000054004010B5164B1C881FFA84FC4CF44B
:1006780080741C80124BB3F814C05FEACC74F9D5AF
:100688004000C0B29C8A18820D4BB3F814C05FEAD0
:100698008C70F9D5988A188B1982094B998A480762
:1006A800FBD5998A1A82064B9A8A5107FBD59A8AF2
:1006B800B3F800C01FFA8CF141F40070188010BD27
:1006C80000540040154BB3F800C01FFA8CF141F4F8
:1006D80080721A80114B9A8AD207FBD59A8A4200F7
:1006E80042F00101C8B218820C4B988A8107FBD5E9
:1006F800188820F480621104080C18809A8A1A8BD2
:100708001A881FFA82FC4CF400711980034B998AED
:100718004A06FBD51B8AD8B2704700BF0054004078
:1007280010B5344B4FF4805CA3F818C0324B1C88CA
:100738001FFA84FC4CF480741C802F4B9C8AE407BD
:10074800FBD5400040F0010C5FFA8CF09C8A1882BF
:100758002948838A9B07FBD5012A06D1B0F800C037
:100768002CF480631B041B0C0380234B988A1B8B7F
:100778003DE0501E012AC3B202D0022A2FD10FE059
:100788001D4AB2F800C01FFA8CF040F4007CA2F8B1
:1007980000C0194A908A4006FBD5128A0A7025E0E3
:1007A800154B988A4007FBD5188820F480621004FE
:1007B800020C1A80B3F810C081F800C0188882B201
:1007C80042F4007CA3F800C00B4BB3F814C05FEAF6
:1007D8004C62F9D51B8A4B700231002306E0064AA9
:1007E800908A4006FBD5128A01F8012B1A46002A86
:1007F800BFD110BD000C02400054004010B5264B7C
:100808009A6802F00C02042A03D0082A03D0234B6A
:1008180024E0234B22E05C685968620201F03F0142
:100828000AD55A681E4B47F6C07C02EA0C04A20996
:10083800B3FBF1F3534309E05A6847F6C07402EA80
:100848000403164C9B09B4FBF1F14B43124C61684D
:1008580001F44032D40BA11CB3FBF1F30E49036041
:100868008C6804F0F00213090E4A0468D35C24FA79
:1008780003F343608C6804F4E054A40A145D23FA7B
:1008880004F48460896801F46041490B12F801C0DE
:1008980023FA0CF3C36010BD003802400024F400B2
:1008A80000127A0000000020044B1A6B09B11043B3
:1008B80001E022EA00001863704700BF00380240D8
:1008C800044B1A6C09B1104301E022EA00001864D5
:1008D800704700BF00380240F0B585B0838823F028
:1008E8003F0204461004060C68460D46FFF786FFD3
:1008F8002E490298B0FBF1F7BFB23E43A680B4F888
:1009080000C02CF001031A04110C21802A68284B1E
:100918009A4209D85200B0FBF2F18BB20137278412
:10092800032B98BF042322E0B5F806E04BF6FF7CC2
:10093800E64505D102EB4203B0FBF3F083B206E0D3
:1009480019235343B0FBF3F291B241F480431905E4
:10095800080D08B943F001034FF4967257434FF45A
:100968007A7E97FBFEF7013743F400432784A3837D
:10097800B4F800E01FFA8EFC4CF0010121802088B9
:1009880020F4806222F00A036889AA8819040B0CF3
:1009980040EA020E43EA0E0121802889AB8940EA29
:1009A800030CA4F808C005B0F0BD00BF40420F001A
:1009B800A0860100038819B19BB243F0010303E04C
:0C09C80023F0010211040B0C03807047A7
:1009D40000000000010203040102030406070809E1
:040000050800018866
:00000001FF
